:020000040800F2
:1000000000000220D53305089D96000875280208D7
:10001000853405088534050885340508000000008E
:10002000000000000000000000000000BDA3000868
:10003000BFA3000800000000C1A30008D1190108F7
:100040008534050885340508853405088534050898
:100050008534050885340508E3C70008E7C70008AC
:1000600085340508EBC70008EFC70008659C000849
:10007000799C00088D9C0008A19C0008B59C000894
:10008000C99C0008DD9C00088534050800000000BC
:10009000000000000000000000000000F3C700089E
:1000A0009D9B0008C59B0008ED9B0008879B0008EE
:1000B000159C0008299C00083D9C00088534050813
:1000C0008534050885340508853405088534050818
:1000D00085340508C9960008D59600080000000080
:1000E000F7C7000885340508C3A300080000000016
:1000F000000000000000000000000000F19C00086B
:100100000000000085340508519C0008853405086E
:1001100000000000000000000000000000000000DF
:10012000059D0008199D00082D9D0008419D0008AF
:10013000559D0008000000000000000000000000C5
:1001400000000000000000000000000015A40008EE
:10015000699D00087D9D0008919D00088534050873
:100160008534050885340508000000000000000003
:10017000000000000000000000000000000000007F
:1001800000000000853405080000000000000000A9
:080190008534050885340508DB
:08019800682F050001000000C2
:1001A000D0FC0020020A000003013D00F0FC00200A
:1001B0000207000007013D0010FD002002030000BF
:1001C00003013D0030FD00200208000008013D0051
:1001D00050FD0020010C00000000760070FD0020A2
:1001E000011000000000760090FD0020010D0100CC
:1001F00000007700B0FD00200114000000001E0088
:10020000D0FD0020011A000000000D00F0FD0020CC
:100210000116000000000C0010FE0020011B000071
:1002200000000E0030FE0020011C000000001E0037
:1002300050FE00200117000000000C0070FE00209E
:100240000118000000000E0090FE002001190000BF
:1002500000000C00B0FE0020012801000000180082
:10026000D0FE00200120000000004800F0FE002029
:10027000012100000000490010FF002001220000C1
:1002800000004A0030FF00200123000000004B0066
:1002900050FF00200124000000004C0070FF0020EF
:1002A0000125000000004D0090FF00200126000005
:1002B00000004E00B0FF00200127000000004F00AA
:1002C000D0FF0020012B000000002900F0FF0020DB
:1002D000012C01000000290010000120012D010067
:1002E0000000700030000120012E010000005200CB
:1002F00050000120012F01000000280070000120A3
:100300000229010000012C009000012001320000B0
:1003100000003C00B000012001350000000020007A
:10800000D0E907239A422FBFD01AC0688018C01A3F
:108010007047D0E9092300699A4238BF1218D31A71
:108020000138C01A7047D0E90902131A5842584162
:108030007047036A41690246C85CD16801338B42CC
:1080400028BF002313627047436A8269D154436A90
:1080500002690133934228BF0023426B4362D36815
:1080600043F08003D3607047436B188810F0100012
:108070001EBF1A889B8801207047436B99891A8814
:10808000890610B592B2044607D5900605D5E26A76
:1080900022B39888216B80B29047636B99891A88C4
:1080A000090692B20FD510060DD5D4E909128A42FD
:1080B00022D0A169895C998021690132B2FBF1F07B
:1080C00001FB1022A262998A1A88C90592B204D5CE
:1080D000D20744BF4FF6F7721A8010BD9B88E26941
:1080E0006169DBB28B54E369E2680133B3FBF2F1FF
:1080F00002FB1133E361D0E7DA6822F08002DA6034
:10810000E1E77047036941681F2B30B54FF020024B
:1081100085BFA3F120054C680C68AA4098BF9A401F
:1081200022421ED0826900201074D06884682068C2
:1081300020F001002060546820686579094C82892C
:1081400034F8154092B21F2B22EA0402828188BFC4
:10815000203B4FF020028BBF9A4002FA03F3CA6023
:108160008B6030BD986E05080E4BDA68D20310D4D0
:10817000DA68D1060FD4DA68D2050ED4DA6812F0C4
:10818000E00F0CD1DB6813F0020F14BF08200920A8
:108190007047012070470620704702207047072073
:1081A000704700BF003C024007B509238DF8073037
:1081B000FFF7DAFF8DF807009DF80730012BF7D0A5
:1081C0009DF8070003B05DF804FB2DE9F0410022A3
:1081D000012603250B6806FA02FC3CEA030331D1B1
:1081E0000368540005FA04FE23EA0E0303600B79CA
:1081F000D0F800806FEA0E0703FA04FE013B4EEA56
:10820000080E012BC0F800E011D883681F4087607A
:108210004B798768A3403B438360436823EA0C03A0
:1082200043608B79476893409BB23B434360C3688C
:1082300005FA04F723EA0703C360CB79C768A340B4
:108240003B43C3600132102AC4D1BDE8F081838A68
:10825000028B9BB243EA024331EA03030CBF0120C5
:108260000020704782B00023019300930123009007
:108270000193019B63B1009A21F07F431432009275
:10828000009A12681A4214BF0120002002B0704701
:10829000009A1832F3E77047704701207047044B8B
:1082A000D3E90003984288BF03F50063181A7047AA
:1082B00088160020054AD2E900318B42FDD0D11842
:1082C0000133C3F30A03087A13607047881600204D
:1082D000044BD3F8080820B1D3F80808431F5842CC
:1082E0005841704788160020012380F849307047B4
:1082F00010B5D0F8E83504461B699847032384F885
:108300001231002010BD08B590F8123180F81331F9
:10831000042380F81231D0F8E835DB689847002054
:1083200008BD08B5D0F8E435DB6903B198470020F3
:1083300008BD08B5D0F8E4351B6A9847002008BD91
:1083400008B5D0F8E4355B6A9847002008BD10B541
:10835000074C2068FF2808D00649D1F80C2801F501
:10836000016100F035F8FF232360002010BD00BF3D
:108370000000002088160020432301480B8070472E
:1083800004000020122301480B80704747000020A2
:10839000042301480B807047590000207047704744
:1083A0007047704770477047044B00200522C3F8A0
:1083B0000828C3F81808C3F81C087047881600205E
:1083C000024B0020C3F80808704700BF8816002041
:1083D000212838B50C461BD022282BD0202815D1B7
:1083E000A1B1072A12D11A4DD5F81C3813B109686A
:1083F000002098472368C5F82038237985F8243869
:10840000637985F82538A37985F82638002038BDAA
:108410000029FBD0072AF9D10D4BD3F820280A6098
:1084200093F824280A7193F825284A7193F826387E
:108430008B71EBE70029E9D0022AE7D1044BD3F88E
:108440001838002BE2D0098800209847DEE700BFEB
:1084500088160020074AD2F82838D2F82C289342F0
:1084600003F1FF338CBF002001209B1A03EBC020D7
:10847000704700BF88160020ECE730B50F4CD4E9F8
:1084800000239A4286BF03F50065AA1A9A1A0A4485
:10849000B2F5006F10D801440022814203D102B12D
:1084A0006360002030BDE21810F8015B15720133E3
:1084B000C3F30A030122F0E70220F3E78816002045
:1084C00070477047D0ED007AD0ED036A30EE677ADE
:1084D000E6EE877AB0EE670AC0ED007A7047D0ED1D
:1084E000017AF5EE407AF1EE10FA09D1DFED0F7A5C
:1084F00060EEA70AB7EE007AC7EE207AC0ED017AE7
:10850000D0ED017A80ED021A71EE277AC1EE276A6A
:10851000D0ED007AC0ED036A30EE677AE6EE877A36
:10852000B0EE670AC0ED007A704700BFDB0FC940AC
:10853000D0ED017AD0ED036A30EE670AE6EE807A7C
:1085400090ED000AC0ED017AB0EE677AD0ED027AC4
:1085500037EE677AE6EE877AC0ED027A77EEC07A78
:10856000A6EEA70A80ED000A704790ED056AD0EDEF
:10857000017AD0ED006AD0ED025A90ED045A66EE11
:10858000277AB0EE407AE6EE807AD0ED066A80ED8A
:10859000057AE5EEA67AD0ED076AD0ED035A80EDB4
:1085A000066AE5EEE67AD0ED085AC0ED086AE5EE17
:1085B000657AB0EE670AC0ED077A7047D0ED006AC1
:1085C000D0ED057AE6EE807AB0EE407AB0EE670A3A
:1085D000D0ED037AD0ED016A67EEC07AE6EE877AD5
:1085E000D0ED066A76EEA77AD0ED026AC0ED057A84
:1085F000D0ED047A67EEC07AE6EE877AC0ED067AAF
:10860000704703685A1C0260197070470369013390
:10861000012B036106D1002380ED010A80ED000AE1
:108620008360704790ED006A07EE903A70EE466AFC
:10863000F8EEE77A86EEA77A77EE067A90ED027A80
:10864000C0ED017A30EE670AC0ED007AA6EE807ABE
:1086500080ED037A80ED027A704703685A1C02604D
:1086600019707047007970470079C0F34010704767
:1086700000794009704790F83020034602F0FF006F
:1086800012B1002283F8302070474FF48053838169
:1086900070474FF48053838170474FF400638381A8
:1086A00070474FF4006383817047064A002352F8F5
:1086B000041B814204D00133042BF8D10020704701
:1086C00001207047B81E002001207047012070472C
:1086D0002DE9F843604F1546D7F84048B7F84428CD
:1086E000B7F84A98C2EB24135200C2EBE402B7F980
:1086F0004648624303FB03F4B7F9483824135C434C
:10870000A41304EBE224B7F94E38C7F85C480E46D0
:10871000A4F5FA3181FB01CE4FEAE37803FB0EF2B8
:108720000CFB0822A3FB0C389044B7F94C2882FBC1
:1087300001021B0A120343EA086342EA10520003D3
:108740001B1842EB282202F50042A3FB093809FB63
:1087500002884FEAE8734FEA680253EA68084FF06C
:1087600000006DD0B7F954984FEAE97809FB0EFE86
:108770000CFB08EEA9FB0C9CE644B7F952C88CFB35
:1087800001814FEA414C4FEA484111EB0909D7F802
:1087900060184CEAD83C4EEB0C0CC1F5801E0EF074
:1087A0000048B7F9501848EA5E0810EB09004FEA94
:1087B000CE7EBEEB00000CEBC10168EB010C40F675
:1087C0003548A0FB080108FB0C114AF01DFCB7F965
:1087D0005A384FEA613E4FEA503C4CEAC14C03FB29
:1087E0000EF24FEAE3790CFB0929A3FB0C324A4451
:1087F00003FB0EFE0CFB02EEA3FB0C3CB7F9582862
:10880000E6445B0E43EACE1313EB000C804602FBFA
:1088100001F34FEAE27941EB6E6EA2FB082809FBF7
:1088200000314144D00C40EA41301CEB0000B7F964
:1088300056384EEBE141000A40EA016000EB0310BC
:108840000EB1000A306025B104EB84048034241298
:108850002C600120BDE8F883881600202DE9F74F31
:10886000CDE90012554AB2F87238D2F86418B2F85D
:108870006E68B2F874781B02C91AB2F870386EEBE1
:108880000E0EA3FB010403FB0E44B2F86C38C009C2
:1088900040EA44601B04C018A6FB013506FB0E55D8
:1088A000B2F86A684FEA132343EA05634FEAC63613
:1088B0004FEAE41444F100049B19A7FB012607FBCF
:1088C0000E664FEAD25242EA46224FEA252545F18A
:1088D0000005F61512F5FA6C46F1000BBCF5FA6FBF
:1088E0007BF100074CDAA2FB02784FF0050A02FB8D
:1088F00006F908EB4909A7FB0A780AFB09884FEA41
:10890000570949EAC879BF08B0EB090047EA8877F8
:1089100064EB6804DB1B2A4F65EBA805BC454FF0F0
:10892000FF377BEB070720DA40F6AC57D21946F148
:1089300000065643A2FB027202EB46064FEAC60847
:10894000FA00BA1A48EA577866EB0808101844EBA0
:1089500008044FF00B08A7FB087208FB06267F08E7
:1089600047EAC677DB1B65EB660501FB0EFEA1FB44
:10897000011202EB4E0EC90F41EA4E01BCEB010C95
:10898000009A9AB10D4AD2F87818A1FB032301FB93
:108990000535520D42EAC522121A4FEA6555009B71
:1089A00065EB0404D20B42EA44421A60019B0BB10E
:1089B000C3F800C0012003B0BDE8F08F8816002086
:1089C00024FAFFFF01207047054B0022C3F87C28E2
:1089D000C3F88028C3F88428C3F88828012070478A
:1089E000881600200A4BD3F88C28D3F88818521A1E
:1089F000FA2A9FBFD3F87C28C286D3F88028D3F800
:108A000084389DBF0287438701200020704700BF44
:108A1000881600202DE9F041476906468846002F58
:108A200059D10368C3F30D0515B3D8F80080356834
:108A3000FFF7BAFB092840F08780454C236923F4EF
:108A400040732361236943F400732361236943F076
:108A500001032361C5F80080FFF7A6FB23690928FD
:108A600023F0010323616FD133680433336032E0B4
:108A7000384A934229D302F58042934224D302F527
:108A8000804293422AD3344A934229D902F5803254
:108A9000934227D902F50032934225D902F50032DC
:108AA000934223D902F50032934221D902F50032D4
:108AB00093421FD902F5802293421DD9B3F1016F71
:108AC0001CD3052009F034F80825FFF76DFB0928B1
:108AD00016D04FF0FF373846BDE8F0811025F4E797
:108AE0001825F2E72025F0E72825EEE73025ECE70A
:108AF0003825EAE74025E8E74825E6E75825E4E792
:108B0000134C236923F440732361236943F40073F6
:108B10002361236923F0F803236123691D4345F092
:108B200002052561236943F480332361FFF73CFB91
:108B3000236923F0020323612369092823F0F80342
:108B400023613FF472AFC4E76FF00107C3E700BFD2
:108B5000003C024000400008FFFF000803682DE9C8
:108B6000F04104464068134483421AD80D468E18DB
:108B700004F10C074FF00008B54202D16069BDE86E
:108B8000F08123695A1C2261234415F8011B1973D3
:108B9000042AF1D139462046FFF73CFFC4E904809E
:108BA000EAE74FF0FF30EAE738B514460D460029F2
:108BB0004BD0394B9FED396AD3F8902807EE902AB5
:108BC000F8EEE77AB3F9A828C7EE866A03F6AC0395
:108BD00007EE902A33F9082C07EE102AF8EEE77A10
:108BE00053F8102CB8EEC77AA6EEA77A07EE902AB3
:108BF00053F8142CF8EEE77AE6EE877A07EE102A9F
:108C000033F9062CB8EEC70AA6EEA70A07EE902A9B
:108C100033F90A2C07EE102AF8EEE77A33F90C2C18
:108C2000B8EEC77AA6EEA77A07EE902AF8EEE77AB2
:108C3000E6EE877A93ED007AB8EEC77AC7EE066A59
:108C4000A6EEA70A4AF032FF28601CB3124BDFEDF4
:108C5000136AB3F9942807EE102AD3F8AC28B3F9B5
:108C6000963807EE902AF8EEE77AB8EEC77A87EEE4
:108C7000A60A07EE903AF8EEE77AF6EE006A60EEA2
:108C8000277A9FED070AE7EE267A27EE800A4AF058
:108C90000DFF2060012038BD881600200000F04A3A
:108CA0000000C8422DE9F347038A8689B6B205461B
:108CB0000C461E404FF0004901F14C0701F1340809
:108CC00016B902B0BDE8F087B6FA86F329FA03F2C6
:108CD000D24391B2298216401B3B002C40D0042B7A
:108CE000EED8DFE803F039342E280300E368D5F826
:108CF0002CA02BB19B681BB11FFA8AF1201D98474D
:108D0000636A33B19B6823B11FFA8AF104F11C0036
:108D10009847E36B2BB19B681BB11FFA8AF1404661
:108D20009847636D002BCBD09B68002BC8D01FFAEF
:108D30008AF1384603E0E368696B5B68201D984759
:108D4000BEE7636AA96B5B6804F11C00F7E7E36B9D
:108D5000E96B5B684046F2E7636D296C5B68E8E7A6
:108D6000042B06D8DFE803F00D0B09070300EB6ABC
:108D70000193019BA4E76B6BFAE7AB6BF8E7EB6B36
:108D8000F6E72B6CF4E72DE9F0410D4DDFF8348068
:108D90002C686B6901271C400CB9BDE8F081B4FA5E
:108DA00084F3C3F11F0307FA03F608EB830324EAF5
:108DB0000604D3F8B008036898476E61ECE700BF7B
:108DC000003C01408816002090F84820531C0244C3
:108DD000DBB280F8483082F8341090F849200AB1AC
:108DE000132B01D949F0D9B87047002280F84920E7
:108DF00049F0D3B870B50F4E96F8F038002BFBD180
:108E000004464518AC4201D1002070BDD6F82C387C
:108E100014F8011BF2180133C3F30A0382F8F118A6
:108E2000C6F82C38FFF716FB0028EBD1012008F01C
:108E30006AFEF7E78816002038B50C461146FFF7A2
:108E400047FA48B1054D002AD5F88C3804DD204694
:108E5000FFF7D0FFD5F88C3838BD00BF881600204A
:108E6000F0B590F8CF5590F8CE1590F8D12590F840
:108E7000D03590F8CC7590F8CDC501EB05218DB2B9
:108E800003EB022390F8D31590F8D22585B002EBBE
:108E9000012207F01F06012192B29BB28E420446C6
:108EA0008DF808708DF809C0ADF80A50ADF80C3097
:108EB000ADF80E20C0F8402180F8111100F00981B2
:108EC000022E00F01A81002E40F09781BCF1090FAC
:108ED0005ED8DFE81CF0B600F1005D00C6005D0062
:108EE00057000A005D00A90076002E0A022EADF898
:108EF00006200BD0032E25D0012E49D1D0F8EC3519
:108F00001B68A0780DF10601984709E0D0F8E43518
:108F100080789B6A0DF1060198474670C4F8F00509
:108F2000BDF80620002A47D0BDF80E30002B43D0F4
:108F30009A4228BF1A46ADF806200146204648F05E
:108F400031FF39E0E9B2052922D8DFE801F0030753
:108F50000B0F1317D0F8EC355B68D2E7D0F8EC357F
:108F60009B68CEE7D0F8EC35DB68CAE7D0F8EC3583
:108F70001B69C6E7D0F8EC355B69C2E7D0F8EC3581
:108F80009B69BEE71A4303D190F81231032B03D13A
:108F9000204648F05BFE0FE0016905F07F0680F88F
:108FA00014610B6865F30A121A430A6048F00EFF59
:108FB0002EB1022384F81231002005B0F0BD012348
:108FC000F8E7E9B28E4D012905F8071CE0D890F8C2
:108FD0001231022B0FD0032BDAD1C1B9022380F852
:108FE0001231D0F8E43580F810115B6898472046BC
:108FF00048F0ECFEE0E70029F9D00121032380F8D6
:10900000101180F81231204648F0E2FDEFE790F8A9
:1090100010110129EBD0D0F8E4355B68984715F8BA
:10902000071C84F81011EEE7012AB1D190F8123133
:10903000022B04D0032BABD100F588717EE7714978
:109040007CE790F81231023B012BA1D86C4B002237
:109050001A60D0F818210AB102221A606849022267
:109060006CE7012D08D1C0F81851D4F8E43502A9F5
:109070009B6820469847BAE7022D9DD1DAB2002AB4
:109080009AD102691B0A023B5268032B03D8DFE81E
:1090900003F00B0D0F11012363F30612584B5A60B6
:1090A000012384F81631A2E70223F5E70323F3E74F
:1090B0000423F1E70523EFE790F81231023B012B7F
:1090C0003FF666AF012D7FF477AF0023C0F818316B
:1090D000CBE790F81221032A7FF45AAFDBB2012BC1
:1090E0003FF656AFD0F8E43502A99B689847BDF823
:1090F0000E30002B7FF460AF79E707F06007202F78
:10910000D9B205D1D0F8E43502A99B68984753E756
:10911000BCF1010F30D0BCF1030F1DD0BCF1000F2A
:109120007FF44AAF90F81221022A59D0032A7FF423
:109130002FAF13F0800F4FF02802314B58D001F0C1
:109140007F0102FB010191F81E21002A4ED001226D
:109150009A602D490222F1E690F81231022B3FD09D
:10916000032B7FF415AF002D7FF47FAF4A063FF449
:109170007CAF48F039FD78E790F81221022A2FD011
:10918000032A7FF405AF002D7FF416AF11F07F00A6
:109190003FF42DAF5BB2002B4FF02802B5BF02FBAE
:1091A000004102FB014101F58E7101F55D71002264
:1091B000DB0F08708A704B7004EB8000C9786BB1CC
:1091C0008269136802396FF3555301298CBFC3F3C9
:1091D0000071012161F31C73136046E7426DF0E7F3
:1091E0004B063FF4E9AE48F0FFFCE5E60022AFE7AE
:1091F00002FB010191F87623A7E707F08001F2E76F
:10920000802700207C2700208827002010B50446F6
:1092100071BB90F81131032B1BD1D0F89023D0F8FB
:109220007C339A4217D9C178012908BFD0F880133E
:10923000A2EB030204BFC918C0F88013934228BFF1
:109240001346C0F890239BB2D0F88023002148F049
:109250006DFE002010BDD0F8E4351B6923B190F8F5
:109260001221032A00D19847204648F0AFFDF0E7CD
:10927000D0F8E4359B69002BEBD090F81221032A3B
:10928000E7D19847E5E770B50A7812F06004064622
:109290000D462AD0202C2FD1CC884B78FCB1120659
:1092A0000CD51E4922461846FFF792F8EA881B495A
:1092B000304648F077FD0024204670BD184A136000
:1092C000184A0323C2F80C4880F81131C0E9E4447D
:1092D000234602F50162002148F028FEEBE7022256
:1092E00011441846FFF774F8E6E74B780A2B08D0CC
:1092F0000B2B0BD0062BDFD1304648F0A7FC022405
:10930000DAE70949012248F04DFDD5E78B7813B91A
:10931000064BDC60D0E748F099FCCDE7981E0020B2
:1093200000000020881600208C27002080270020C5
:1093300010B5282303FB0101074AB1F88C1304463A
:109340001046FFF79AF82046034A4023012148F0CF
:10935000EDFD002010BD00BF90270020002310B5B8
:1093600019460446402248F07FFC402280212046D6
:10937000002348F079FC012384F81231D4F8E83551
:10938000A0785B689847002010BD38B5402204469D
:109390000223812148F068FC20460223402201215B
:1093A00048F062FC204603230822822148F05CFC3E
:1093B000084B0222002583F84B2083F84C50FEF71F
:1093C000F3FF01212046044A402348F0AFFD284620
:1093D00038BD00BF000000209027002038B50122D2
:1093E000044640F20113A0F844310125114648F02B
:1093F000BBFD29462046A4F89C53002248F0B4FD4A
:109400004FF48173A4F86C3120462A46022148F0BB
:10941000ABFDFEF7D5FF002038BD38B5244C94F8DD
:10942000F028012A034630D12248026D1AB984F887
:10943000F028002038BD402AD4F8281818D9403A1E
:1094400001F140050265C4F8285840221A4810FA74
:1094500081F1C3E9541140F201100021C3E9562102
:10946000A3F8440103F5A271184648F0C6FCE0E7F2
:1094700002EB0105C4F828584FF0000505650ABF46
:10948000022092B284F8F008E0E7022AD1D1002548
:1094900040F20112C0E95455C0E95655A0F84421E4
:1094A00000F5A27148F0A9FC84F8F058C1E700BFAC
:1094B0008816002080270020791F002038B5284C0E
:1094C000636D0F2B03F1010202D06265002038BDED
:1094D000244A0023636592F8F038002BF6D1D2F8C5
:1094E0002818B1F5006F08BFC2F82838D2F828183C
:1094F000D2F82C38994203D1002382F8F038E5E7FE
:109500008CBFC1F500635B1A402B1AD9403B01F1B7
:1095100040052365012382F8F038C2F8285840231B
:10952000114A12FA81F140F20112A0F844210022FE
:10953000C0E95411C0E9563200F5A27148F05DFC53
:10954000C4E701EB0305C2F828584FF00005256574
:109550000EBF022401249BB282F8F048E0E700BF6E
:109560008027002088160020791F002008B50248B7
:1095700046F055FA014808BD8D000608D82700209E
:1095800008B5024846F04BFA014808BD98000608A5
:10959000D827002008B5024846F041FA014808BD26
:1095A0009D000608D827002008B5024846F037FA83
:1095B000014808BDA7000608D827002008B50248C2
:1095C00046F02DFA014808BDB2000608D827002051
:1095D000024BD3F8580108F007B900BF80270020DC
:1095E00008B5006848F055F9024BC3F8640801203B
:1095F00008BD00BF8816002008B5006848F049F98A
:10960000024BC3F87808012008BD00BF881600206F
:1096100010B50D4B0D4CD3F88C38D4F85C011B1AE7
:10962000FA2B06D904201FF02BFE002084F86001DD
:1096300010BD11B1D4F864310B6012B1D4F86831A7
:1096400013600120F4E700BF881600208027002067
:109650000E49D1F8883043F47003C1F888300C4BC0
:109660001A68002042F001021A6098601A6822F01D
:10967000847222F480321A60064A5A601A6822F410
:1096800080221A60D860044B8B60704700ED00E0C8
:109690000038024010300024000000087047002805
:1096A000ACBF00F16040074B4FEA0111ACBF00F5C1
:1096B000614000F00F00C9B2B4BF195480F8001324
:1096C000704700BF14ED00E00148FEF7D6BC00BFB4
:1096D000640000200148FEF7D0BC00BFB0020020AB
:1096E000064A002352F83310814201D1D8B27047A4
:1096F00001330E2BF6D1FE20704700BFA06E050887
:10970000704770B5002828D04C684CB9426815687D
:109710005679AB8902229BB2B24023EA0203AB81A5
:109720008A683AB943681D68AB8923F001031B04BA
:109730001B0CAB81816044B14468216864798D89D8
:109740000223A3402B439BB28B8132B143681A683A
:1097500093899BB243F00103938170BD0B4B30B5ED
:109760001A4600241D79854208D1DD68294203D0BC
:10977000142000FB042030BD0029F9D00134162C40
:1097800003F11403EED10020F5E700BFF804002038
:1097900038B503681B681C68254B03F5D66393ED49
:1097A000007A07EE902AB8EE477AF8EE677A013928
:1097B00087EE270A8DB2DFED1F7A30EE270A4AF0D6
:1097C00075F91D4A23880138944280B29BB212D0A9
:1097D00002F5806294420ED0B4F1804F0BD0A2F516
:1097E0008032944207D002F58062944203D002F5A1
:1097F0008062944202D123F070039BB20F4A9442DC
:1098000006D002F5806294421CBF23F440739BB2E1
:109810002380094BE5629C42208503D003F58063D9
:109820009C4201D1002323860123A38238BD00BFBF
:10983000000000200AD7233C000001400010004037
:109840002DE9F0434568A87910F0040300F0020206
:109850000BD0002017468046042406466B79032B64
:1098600049D8DFE803F0094A89C990464FF480706F
:109870001F461C460126F1E72D682B8C23F00103BF
:109880001B041B0C2B84B5F820C0B5F804902B8B5F
:1098900023F073031B041B0C43F0600E2CF0020C2E
:1098A0006E4B4FEA0C4C4FEA1C4C48EA06069D42B0
:1098B0001FFA89F94CEA060C03D003F580639D4238
:1098C0000AD14FF6F3730CEA03033B4329F44079C2
:1098D00043EA040C40EA0909A5F80490A5F818E049
:1098E0006963A5F820C02B8B23F008031B041B0C15
:1098F00043F008032B83BDE8F0832D682B8C23F005
:1099000010031B041B0C2B842A8CB5F804E0B5F85B
:1099100018C0524B2CF4E64C22F020024FEA0C4CBB
:1099200012044FEA1C4C120C48EA06069D421FFA2C
:109930008EFE4CF4C04C42EA061203D003F580635D
:109940009D420BD122F0800242EA071222F040022F
:109950002EF4406E42EA04124EEA800EA5F804E0AE
:10996000A5F818C0A9632A842B8B23F400631B0479
:109970001B0C43F40063BDE72D682B8C23F480732C
:109980001B041B0C2B842A8CB5F804E0B5F81CC012
:1099900022F400732CF0730C304A4FEA0C4C1B0479
:1099A0004FEA1C4C1B0C48EA060695421FFA8EFE35
:1099B0004CF0600C43EA062303D002F58062954226
:1099C0000BD123F4006343EA072323F480632EF4CE
:1099D000405E43EA04234EEA001EA5F804E0A5F821
:1099E0001CC0E9632B84AB8B23F008031B041B0C06
:1099F00043F00803AB837EE72C68238C23F4805369
:109A00001B041B0C2384258CA288A38B25F40055F2
:109A10002D0448EA06062D0C23F4E64345EA0635F4
:109A20000E4E1B041B0CB44292B243F4C04303D04D
:109A300006F58066B44203D122F4804242EA8012E5
:109A4000A280A38321642584A38B23F400631B04D9
:109A50001B0C43F40063A3834DE700BF00000140EB
:109A600043685A79032A0FD8DFE802F00205080B91
:109A700018683430704718683830704718683C30C0
:109A800070471868403070470020704710B5436831
:109A90001A685879084B0344012093F87840138CD6
:109AA000A0409BB223EA00031384138CA140194306
:109AB00089B2118410BD00BF986E0508F0B5EFF3B0
:109AC0001184102383F31288C5684668AA68136856
:109AD00023F00103136032687779104E938936F8CA
:109AE00017609BB223EA060393812A696D681F2AD7
:109AF0004FF0200385BF203A93409340EB6098BF1E
:109B0000AB60E3B283F31188C3689B6859601A683D
:109B100042F001021A6001230374F0BD986E05083B
:109B20000268137D012B04BF0223137592F82C10D9
:109B30000CBF4FF400730023012904BF022182F8F7
:109B40002C1092F8441008BF43F48063012904BF2D
:109B5000022182F8441092F85C1008BF43F40063BD
:109B600001290DD1022182F85C1043F48053426830
:109B7000116800224A628A8992B213438B8101E004
:109B8000002BF4D17047034B0348D3F86C11FFF757
:109B900089B800BF802700200000014010B5064CA6
:109BA0000648D4F86C11FFF77DF8D4F88C110448FE
:109BB000BDE81040FFF776B8802700200000014084
:109BC0000040014010B5064C0648D4F86C11FFF770
:109BD00069F8D4F890110448BDE81040FFF762B866
:109BE00080270020000001400044014010B5064CD1
:109BF0000648D4F86C11FFF755F8D4F894110448CE
:109C0000BDE81040FFF74EB880270020000001405B
:109C100000480140034B4FF08040D3F87011FFF72C
:109C200041B800BF80270020024B0348D3F87411CD
:109C3000FFF738B88027002000040040024B03489B
:109C4000D3F87811FFF72EB88027002000080040D5
:109C5000024B0348D3F87C11FFF724B8802700207B
:109C6000000C00400348D0F8C03613B100F2B460D5
:109C700018477047000000200348D0F8E03613B1C1
:109C800000F2D46018477047000000200348D0F865
:109C9000003713B100F2F46018477047000000204D
:109CA0000348D0F8203713B100F2147018477047FA
:109CB000000000200348D0F8403713B100F23470A0
:109CC00018477047000000200348D0F8603713B1F0
:109CD00000F2547018477047000000200348D0F885
:109CE000803713B100F274701847704700000020ED
:109CF0000348D0F8A03713B100F2947018477047AA
:109D0000000000200348D0F8C03713B100F2B4704F
:109D100018477047000000200348D0F8E03713B11F
:109D200000F2D47018477047000000200348D0F8B4
:109D3000003813B100F2F47018477047000000209B
:109D40000348D0F8203813B100F6140018477047C4
:109D5000000000200348D0F8403813B100F634006A
:109D600018477047000000200348D0F8603813B14E
:109D700000F6540018477047000000200348D0F850
:109D8000803813B100F674001847704700000020B7
:109D90000348D0F8A03813B100F694001847704774
:109DA00000000020036823F0010303600023036028
:109DB00043608360C3600361212343612A4B98425F
:109DC00003D13D2243F8082C7047284B984204D118
:109DD0004FF4746243F8202C7047254B984204D10D
:109DE0004FF4741243F8382C7047224B984204D138
:109DF0004FF0746243F8502C70471F4B984203D1C8
:109E00001E4A43F8642C70471D4B984203D11D4AEB
:109E100043F87C2C70471C4B984203D11B4A43F8F3
:109E2000942C70471A4B984204D14FF03D5243F89E
:109E3000AC2C17E0174B9842C3D0174B9842C7D0B1
:109E4000164B9842CCD0164B9842D1D0154B984225
:109E5000D6D0154B9842DAD0144B9842DED0144B32
:109E60009842E2D0704700BF106002402860024074
:109E70004060024058600240706002403D00002097
:109E800088600240400F0020A060024000003D209A
:109E9000B8600240106402402864024040640240FE
:109EA000586402407064024088640240A06402402A
:109EB000B8640240204A936803F00C03042B10B5E9
:109EC00020D0082B20D01D4B1B4C0360A3681C4ADC
:109ED000C3F30313134493F8B4180368CB404360EF
:109EE000A168C1F38221114491F8B41823FA01F159
:109EF0008160A168C1F342310A4492F8B428D3408A
:109F0000C36010BD0F4BDFE75368516813F4800F37
:109F100001F03F01536814BF0A4A084AB2FBF1F14D
:109F2000054A5268C2F30142C3F3881301324B431E
:109F30005200B3FBF2F3C7E7003802400024F400FC
:109F40000000002040787D01F0B5446B8668A3894D
:109F500023F400531B041B0CA3818279278A054636
:109F6000BFB2100312F0040F4FEA022100F40050B8
:109F70006A7927F4405740EA0700208214BF4FF463
:109F8000805C4FF0000C12F0010F0CBF0023042383
:109F90009207A28922F4B05201F4806122F00C02EF
:109FA00048BF43F0080341EA0C0112040B43120CB2
:109FB0001A43A281A38A23F440731B041B0C85B0AF
:109FC000A3826846FFF776FF214B9C4203D003F53E
:109FD00080639C423AD1039BA2891921170401FB9B
:109FE00003F34FF064014CBF7600B600B3FBF6F309
:109FF000B3FBF1F001FB10330201A08900044BBF59
:10A00000DB001B01323332334BBFB3FBF1F3B3FB45
:10A01000F1F303F0070303F00F0313439BB2238113
:10A020006A6BAB7913F0080F938A0BBF23F0080318
:10A030009BB21B0443F0080308BF1B0C9382938957
:10A040009BB243F40053938105B0F0BD029BC3E77C
:10A0500000100140816077E7417175E7F0B587B086
:10A06000002300930193744B1A6842F480321A6003
:10A070001A6802F400320192009A01320092019AA9
:10A080001AB9009AB2F5A04FF2D11B6813F400334D
:10A0900018BF01230193019B012B40F0B180664B57
:10A0A00066491A6C42F080521A640A6842F44042CF
:10A0B0000A609A689A609A689A609A6842F4805234
:10A0C0009A605F4A5A601A6842F080721A601A6891
:10A0D0009201FCD55B4A40F2027111609A6822F04D
:10A0E00003029A609A6842F002029A60524A9368A8
:10A0F00003F00C03082BFAD19368534C03F00C03C4
:10A10000042B7FD0082B7FD0504BC4F8B0364A4B7D
:10A110004F4D9A684F48C2F303122244002692F82A
:10A12000C418D4F8B026CA40C4F8B0264A4AEA6037
:10A130005A6F4A4AAA605A6B22F080025A635A6FD9
:10A1400042F080725A67196B454A0A431A635A6B88
:10A150005A631A6C42F0875242F4F61242F41F62BC
:10A1600042F00F021A64596C3E4A0A435A6402A92B
:10A1700048F2FF73CDE902364FF6FF77FEF725F878
:10A1800000F580600297FEF720F800F580600297E6
:10A19000FEF71BF800F58060FEF717F800F5806009
:10A1A000FEF713F80846FFF785FE029B2E4AB3FB25
:10A1B000F2F32E4AC2F8A431D5F8FC302C4A43F011
:10A1C0008073C5F8FC302B4BC3F8B02F5E601A6863
:10A1D00042F001021A60D4F8B0364FF47A72B3FB41
:10A1E000F2F3013BB3F1807F08D24FF0E0225361DC
:10A1F000F02385F8233007239661136107B0F0BD83
:10A2000000BFFDE71C4B80E75368516813F4800FD3
:10A2100001F03F01536814BF174A0C4AB2FBF1F139
:10A22000054A5268C2F30142C3F3881301324B431B
:10A230005200B3FBF2F368E70038024000700040C0
:10A24000196C4109003C0240000000200024F40089
:10A2500000ED00E0000002400003FA0500000008E5
:10A260001F9067003357070040420F0080270020EF
:10A2700055CEACC5001000E040787D0182B00023CF
:10A280000193054B0193019B03EB80000190019B1F
:10A29000196002B0704700BF50280040436D064A65
:10A2A0001A61C278012A06D100F2CC5058611A68AE
:10A2B0004FF080221A6070471800086038B50446D5
:10A2C00000296ED190F81131022B2AD1D0F8382113
:10A2D000D0F824118A4231D9C378012B04BFD0F8B9
:10A2E00028315B18A2EB010208BFC0F828314FF4F7
:10A2F0008071D0F82831C0F83821002592B2A0F83A
:10A300001C11C0F82C31C0F83451C0F8302100F5D0
:10A310008E7147F0F5FC2B462A462946204647F029
:10A3200005FE94F81631012B06D1234A23695268A1
:10A330005A60002384F81631002038BDD0F83C3133
:10A34000B3FBF1F501FB1535A5B9994212D8D0F848
:10A35000402193420ED24FF48073C0E94A55C0E9C0
:10A360004C55A0F81C3100F58E7147F0C9FCC4F8BB
:10A370004051D0E7D4F8E435DB682BB194F81221D2
:10A38000032A01D120469847052384F81131002380
:10A3900020461A46194647F0C9FD2046FFF77EFFC2
:10A3A000BFE7D0F8E4355B69002BC5D090F81221E7
:10A3B000032AC1D19847BFE7802700207047704724
:10A3C000704710B5114C94F8B231CBB14FF0E02288
:10A3D000D2F8103D23F00603C2F8103DFFF738F91C
:10A3E00094F8B23163B1D4F8B8319B68DB0707D574
:10A3F000D4F8B422136823F0030161F30703136058
:10A40000034B4FF480225A6110BD00BF802700200B
:10A41000003C01402DE9F04F964CD4F8B4315A6914
:10A42000D0078DB000F1A3825A699B691340019354
:10A4300000F09D82C3F307430293019B190311D5DA
:10A44000D4F8B831DFF838929E69DB6904F5D47B23
:10A450001E40360C04F5FE774FF00008DA46002E59
:10A4600040F01481029B5A070FD5D4F8B831824EC0
:10A470009F69DB691F40BFB2A6F118054FF00009C4
:10A48000A6F5E078002F40F04681019B9DF804700E
:10A49000980741BF774BD3F8B43102225A61019B30
:10A4A000002B1BDA734D95F8B2313BB1D5F8B422CD
:10A4B000136823F0030161F307031360D5F8B82193
:10A4C0006E48536823F0010353606D4BD3F8EC38AA
:10A4D0009847D5F8B4314FF000425A61019B1905F5
:10A4E000C3F3072631D5634D00238DF81F3095F84F
:10A4F000BA328DF81F30624B05F5D470D3F8E838C6
:10A500009847D5F8B421D5F8B8314FF400619B686D
:10A51000516195F8B221C2B1DA0716D595F8BD326E
:10A52000012B12D19DF81F30032B0ED1D5F8B43278
:10A530001A6842F001021A601A6842F003021A60B7
:10A54000504A136943F0060313613B070AD5494D8E
:10A550004B4B05F5D470D3F8E0389847D5F8B431B3
:10A5600008225A61FD0615D5424BD3F8B401826921
:10A5700022F010028261026AC2F34341022902F012
:10A580000F0500F08581062900F0A981836943F059
:10A5900010038361F00635D5364DD5F8B8215368E0
:10A5A000002723F001035360384645F0FDFBB84611
:10A5B00095F8A9013B4605F5E075FF218342C0F0FF
:10A5C0009C81D4F8B8312D484FF0FF329A614FF09A
:10A5D0000112DA610B2262F3070762F307085F6179
:10A5E000C3F810801A686FF30A121A60FFF756FE5C
:10A5F000D4F8B43121484FF480525A61204BD3F83B
:10A60000E4389847B10640F194811A4CD4F8B83137
:10A61000D4F8C00199680268C1F34101022906BF5C
:10A62000032161F30A026FF30A0202605A6842F4DE
:10A6300080725A6008A8FFF73DFCD4F8B411D4F832
:10A64000B801CB68099A6FF38D23CB6085680E48FB
:10A65000C5F34105284490F87C00032840F054815C
:10A66000002284F8AA214FF40072A4F8AC21092238
:10A6700059E100BF80270020402900202829002020
:10A680000000002000ED00E0986E0508F2073BD5C1
:10A690005FFA88F104EB8103D3F8FC319D68D4F8AC
:10A6A000B8315B691D40EB0720D594F8AB013B68DE
:10A6B0000125A8429D6007D11869DBF87C33C0F3FF
:10A6C00012001B1ACBF88C33D9F8D438504698476F
:10A6D00094F8AB31012B09D1B8F1000F06D194F8F1
:10A6E000B932052B02D15046FFF7D8FDA80742BF6B
:10A6F0003B6802259D60290706D5D9F8DC3850460D
:10A7000098473B6808229A6008F1010876080437E8
:10A710000BF1280BA3E6FB0777D5D8F8B8315FFA21
:10A7200089FA1969586B08EB8A0220FA0AFBD2F8F9
:10A73000C0214FEACB1B92685FFA8BFB4BEA010BFF
:10A740000BEA020B1BF0010F1ED05A6BA8484FF00A
:10A75000010B0BFA09F122EA01025A633368C3F8CC
:10A7600008B0A44B5146D3F8D838984798F8AB3185
:10A770005B4509D1B9F1000F06D198F8B932042B25
:10A7800002D19B48FFF78AFD1BF0080F1EBF3368FC
:10A790004FF0080BC3F808B01BF0100F1EBF336852
:10A7A0004FF0100BC3F808B01BF0400F1EBF33680A
:10A7B0004FF0400BC3F808B01BF0020F1EBF336808
:10A7C0004FF0020BC3F808B01BF0800F1DD0D5E985
:10A7D0004C329B1AD5F82421D6F800E098F8ABB19A
:10A7E000DEF81800934228BF13460333D8F8B82187
:10A7F00003920AF1320A9B0808EB8A0A80B2984257
:10A8000003D9D5E94C03984205D809F101097F081D
:10A810000436283536E6C01AD5F82431984228BFC8
:10A820001846C31C9B08BBF1000F1CD0D5F828119B
:10A83000D5F834210144C5F82811D5F83011024467
:10A840008A42DEF81800C5F83421D7D1039A95F86A
:10A850001C11526B4FF0010C0CFA01F122EA0102BB
:10A8600003994A63CAE7D5F82821049282B2DAF83C
:10A87000B011033292108C4605925946059A8A42CD
:10A88000D4D0049A52F82120CCF800200131F5E709
:10A8900047F6F07111423FF479AE282101FB0531F2
:10A8A000C2F30A12D71CD3F878E2D1F828C5BF103A
:10A8B00000218F420DD1282101FB0533D3F8281543
:10A8C0001144C3F82815D3F834150A44C3F83425C5
:10A8D0005CE6DEF800804CF821800131E9E7D3F82E
:10A8E00078120F68C3F874770968C3F878172821BD
:10A8F00001FB0533C2F30A12E5E755F8042B91601A
:10A90000AA6B0133916059E6012084F8AA01402026
:10A91000A4F8AC01A0F56400374CA0F562401044E7
:10A92000A04227D80E2262F38D23CB604FF4005350
:10A930004B61029BDA060BD5304C2E4B04F5D470DC
:10A94000D3F8F0389847D4F8B4314FF480125A61F4
:10A95000029B9B060BD5294C264B04F5D470D3F8EB
:10A96000F4389847D4F8B4314FF400125A610DB05E
:10A97000BDE8F08F224CA2F57400A0F51050A04263
:10A9800001D80D22CFE71F481F4C1044A04201D22E
:10A990000C22C8E71D4CA2F18C70A0F54340A042E8
:10A9A00001D80B22BFE71A481A4C1044A04201D22A
:10A9B0000A22B8E71848194C1044A042FFF457AED9
:10A9C000174CA2F1B770A0F55850A04201D208224E
:10A9D000A9E71448144C1044A04201D20722A2E770
:10A9E00012481044124A904234BF062205229AE7C8
:10A9F00028290020000000203F420F00802700206F
:10AA0000DFC810002013FBFE20D61300FF691800DA
:10AA100000D3CEFE40771B00C05BB3FEC091210087
:10AA200040AC2700C01D6AFE40E13300803C36FE8A
:10AA3000E09C41004A09012301F01F0103FA01F1E2
:10AA400050F82230194214BF0120002070474A09F3
:10AA5000012301F01F0103FA01F150F822300B43EA
:10AA600040F8223070474A09012301F01F0103FA20
:10AA700001F150F8223023EA010340F822307047F8
:10AA800030B54D09024400EB8504A2424FF0FF337C
:10AA900023D901F01F018B4050F825100B4093FA89
:10AAA000A3F3B3FA83F3DBB2202B02D003EB451000
:10AAB00030BD211D91420C4602D34FF0FF30F7E725
:10AAC0002368043193FAA3F3B3FA83F3DBB2202BA8
:10AAD000F0D0201A03EBC000EAE71846E8E780EA66
:10AAE0000120082341F2210210F4004F4FEA4000F8
:10AAF00018BF5040013B80B2F6D1704738B50C46C4
:10AB00008D18AC4200D138BD14F8011BFFF7E7FFE8
:10AB1000F7E74840082310F0800F4FEA400018BFC5
:10AB200080F0D500013BC0B2F5D1704710B50A44A2
:10AB30000C46944200D110BD14F8011BFFF7E9FF49
:10AB4000F7E738B50A46056804460020AA4203D351
:10AB50006B1C2360287038BD12F8011BFFF7D9FF6A
:10AB6000F4E7DFED0A7AC0ED020A20EE270AB7EE1D
:10AB7000007AC7EE007A00230360C0ED017A70EE20
:10AB8000A77A80EEA77A80ED037A7047DB0FC94081
:10AB900090ED017AD0ED007AC0ED020A30EE877AAE
:10ABA000C0EE876A30EE677AE6EE877AB0EE670A23
:10ABB000C0ED007A7047012303700023C3648364EF
:10ABC0000365036443644365836283657047DFED17
:10ABD000157A80ED010AF4EEE70AF1EE10FAC0ED05
:10ABE000020A80ED031AC0ED051A18DDB4EEE70A7B
:10ABF000F1EE10FA10DD81EE007AC0EE207AF0EE70
:10AC0000006A77EE877A86EEA77A80ED047A80ED87
:10AC10000F2AC0ED0E2ACEE700230361F7E70023D9
:10AC20008360FAE7BD378635FDEEC07A17EE903ABD
:10AC30002033402B43D8DFED237A9FED237AB4EE07
:10AC4000E70AF1EE10FA28DCDFED207A9FED1E7A9C
:10AC5000B4EEE70AF1EE10FA22D4DFED1D7AB4EE7D
:10AC6000E70AF1EE10FA1EDD30EE670A37EEC00A91
:10AC700060EE007ADFED176A9FED177AA7EEA67AED
:10AC8000DFED166AE7EE876A9FED157AA7EEA67AE2
:10AC900020EE276AA6EE070A704730EE470ACEE795
:10ACA00030EE070AD4E79FED0F7AB4EEC70AF1EE53
:10ACB00010FA44BF30EE270A37EE400AD8E79FED7E
:10ACC0000A0A7047DB0F4940DB0FC940DB0F49C060
:10ACD000DB0FC93F9A7C2E36FAAF4FB93587083C57
:10ACE000A4AA2ABEDB0FC9BF00000000DFED027A74
:10ACF00030EE270A98E700BFDB0FC93F38B51D4685
:10AD0000304BB3FBF2F39942B0EE405AF7EE005AE3
:10AD10004FF000044FD207EE901A9FED2B7ADFED33
:10AD20002B6AF8EE677A67EE877A07EE102AB8EE9C
:10AD3000477A27EE267AC5EE876A87EEA64AB0EEF6
:10AD4000440AFFF771FFF0EE404AB0EE440AFFF705
:10AD5000CDFF35EE055A012D84EE854AF0EE407A9E
:10AD60001CBF35EEE76AF6EE006AB8EE000A34EE74
:10AD7000257A12BF66EE266A27EE806AF0EE656AD3
:10AD800086EE875AC6EE076A67EE807A75EEC45A79
:10AD9000C0ED016AC7EE876AC5EE877A80ED005A7A
:10ADA00080ED025AC0ED036AC0ED047A846144610B
:10ADB0000462C46138BDC0ED005A44608460C46060
:10ADC0000461F3E720A10700DB0FC940BD378635DA
:10ADD0009FED010A002391E7F304353FB5EE400AE9
:10ADE000F1EE10FA10B5F0EE406A04464FF00003A1
:10ADF000084627D007EE902AF8EE670ADFED1A7AA8
:10AE000060EEA70A4CB9FFF7ACFEFCEEE66ABDE8BF
:10AE1000104016EE903A99B2DAE7022C13D0032CC8
:10AE2000F3D19FED120A0B6066EE806AB7EE007AEE
:10AE3000C7EE267A4B608B6077EEA07A80EEA77A19
:10AE400081ED037A10BD9FED0A7A0B6020EE077A40
:10AE5000B7EE006AC6EE077A4B6077EEA07A80EE16
:10AE6000A77A81ED027AD0E7BD378635F82F4541C4
:10AE7000D2331C412DE9F041FCEEC07A13460A465C
:10AE800017EE901AD0F814808769C669056AB0EE8B
:10AE9000600A89B2FFF732FFC0F814808761C6618B
:10AEA0000562BDE8F081F0EEE06AB0EEC07AF4EE43
:10AEB000C76AF1EE10FAD4BFB0EE476AB0EE666A28
:10AEC000B5EE406AF1EE10FAF0EE405A46D0F4EEDC
:10AED000C76AF1EE10FA54BFB0EE475AB0EE665AA8
:10AEE000C5EE067A9FED1F6A9FED1F5ADFED1F4AE0
:10AEF000A7EE865A9FED1E6AA5EE276A9FED1D5AA2
:10AF0000A6EE275A9FED1C6AA5EE276A9FED1B5AF5
:10AF1000E7EE854AB7EE005AA4EEA75AF1EE467A5C
:10AF200087EE850AF4EEC76AF1EE10FA48BFDFED4E
:10AF3000147AF5EEC00A48BF37EEC00AF1EE10FAF7
:10AF400048BFDFED107AF5EEC05A48BF37EEC00AB1
:10AF5000F1EE10FA48BFB1EE400A7047DFED0A7A11
:10AF6000C0E700BF39094E3DE3B59EBE69A2163E5B
:10AF700088FA16BE45FE7FBFA7DFA8B499FB243F21
:10AF8000DB0FC93FDB0F49400000000044F2506373
:10AF9000984203DDA0F50C40A0387047034B98425F
:10AFA000BCBF00F50C40A030704700BFB0B9FFFF38
:10AFB00048F69F43984203DDA0F50C40A038704747
:10AFC0000028BCBF00F50C40A030704791ED005A3E
:10AFD00008B5B0EE450AFFF789FEF0EE405AB0EE34
:10AFE000450AFFF721FE91ED015AF0EE404AB0EE1E
:10AFF000450AFFF77BFEF0EE403AB0EE450AFFF758
:10B0000013FE91ED023AB0EE405AB0EE430AFFF75C
:10B010006DFEB0EE404AB0EE430AFFF705FE25EEA6
:10B02000806A63EEC07A24EE847AC0ED017AF0EE95
:10B03000467AE5EE077A25EE843A64EE806AC0ED42
:10B04000037AF0EE437AE5EE667AA5EE067AE5EE4F
:10B05000436A23EE844A64EEE34A65EEA35A80ED28
:10B06000004A80ED025AC0ED047AC0ED054AC0EDF9
:10B07000066A80ED077AC0ED085A08BD034600F164
:10B08000400100221A615A619A61DA6110339942D3
:10B09000F8D1102200214BF062BED1ED007A90ED84
:10B0A000066AD0ED095AB8EEE77AD0ED047AE7EEF9
:10B0B000077AB7EE005AC0ED047AD1ED017AF8EEC6
:10B0C000E76AD0ED057AE7EE267AC0ED057AD1ED94
:10B0D000027AF8EEE77AA7EE276A80ED066A90ED2D
:10B0E000076A36EE076A80ED076A90ED086AA7EEF8
:10B0F000266A80ED086A26EEA66A75EE865AA7EEE5
:10B10000076AC0ED095AD0ED0A5AE6EEA75AA7EE33
:10B11000A76AC0ED0A5AD0ED0B5A75EEA65AC0EDDB
:10B120000B5AD0ED0C5AE7EE275AC0ED0C5AD0ED71
:10B130000D5AE6EEA75AC0ED0D5AD0ED0E5AE7EEC5
:10B14000A75AC0ED0E5AD0ED0F5A75EEA75AC0EDB2
:10B150000F5AD0ED105A75EE875AC0ED105AD0ED47
:10B16000115A75EEA65AC0ED115AD0ED125A75EE6D
:10B17000A75AC0ED125AD0ED135A75EE855AC0ED9C
:10B18000135AD0ED005AE7EE065A90ED017AC0ED61
:10B19000005AA6EE867A80ED017A90ED027AA7EE4B
:10B1A000867AD0ED037A80ED027A37EE866A80EDFA
:10B1B000036A70472DE9F043034685B000F110079C
:10B1C000054600261C46AC4612E0F8EC016A1EED6E
:10B1D000047AD4ED007AE6EEC77AC4ED007A984599
:10B1E0000EF1100EF1D10434BC420CF1040C03D06A
:10B1F000A7F11008E646F2E701361C46B646BEF156
:10B20000040F1FD000EB0E1CA84604F1100909E042
:10B21000FCEC016A18ED047AD4ED047AE6EEC77A04
:10B22000C4ED047ACC4508F11008F1D1D4ED046ADC
:10B2300093ED007AC6EE877A0EF1010EC4ED047A22
:10B240006446DCE7042E03F1140305F1040507F15D
:10B250001007B7D1002300930193029303936C4628
:10B260000023142752F8045B44F8045B07FB030C2B
:10B2700000EB03156E4665451FD10133042BF1D158
:10B2800004AD103100F1400255F8044D0E4600EBBC
:10B29000031741F8044D1446A742D1ED007A17D1A7
:10B2A00052ED016A87EEA67A013BA2F1140281ED0C
:10B2B000007AE9D105B0BDE8F083B6EC017A54ED2F
:10B2C000017AF5EC016AE6EEC77A44ED017AD2E73D
:10B2D000F4EC016AB6EC017AE6EEC77AC1ED007AC9
:10B2E000DAE79FED0C7A00F10C03F0EC017AF4EE52
:10B2F000677AF1EE10FA06D7F0EEE77AF4EE477AC5
:10B30000F1EE10FA03DC9842EFD1012070470020E3
:10B31000704700BFFFFF7F7F1FB50C46024669469E
:10B320001030FFF747FFDDED007AB6EE007A67EEEA
:10B33000877A2046C4ED007ADDED017A67EE877AE0
:10B34000C4ED017ADDED027A67EE877AC4ED027A08
:10B35000FFF7C7FF04B010BD08B547F0F7FC00EEDB
:10B36000100AB5EEC00AF1EE10FA06DB48F0C0FD97
:10B37000B4EE400AF1EE10FA01D79FED010A08BDC4
:10B380000000000008B5F7EE007A2DED028BF0EE1C
:10B39000C08A77EEE87AB0EE408A17EE900A47F05E
:10B3A000ADF9FFF7D9FF9FED0E7ADFED0E7AE8EEEB
:10B3B000877A9FED0D7AA7EEA87ADFED0C7AE7EE9B
:10B3C000287AB5EEC08ABDEC028BF1EE10FA20EEC1
:10B3D000270A44BFDFED067A37EEC00A08BD00BF7A
:10B3E000306E99BC2716983D843459BEA40DC93FD0
:10B3F000DB0F494008B50369012BC3BF03F1FF33DD
:10B4000007EE903AD0ED036A9FED067AC4BFF8EEDE
:10B41000E77A86EEA77A17EE100A47F06FF9BDE8D3
:10B42000084099E70000000038B50378012B044676
:10B430002CD103691D4D23B9426812B9D5F88C2867
:10B440004260D4ED067A77EE807A01332361C4ED51
:10B45000067A04F11C00FDF7D9F86268D5F88C383B
:10B460009B1AA268934211D9FFF7C4FFD4ED057A65
:10B47000B4EEE70AF1EE10FA0CDD237B3BB9D5F808
:10B480008C28626000222361A261E36238BD03233D
:10B490002370FBE7D4ED047AD4ED066AF8EE677A00
:10B4A000022386EEA77A84ED067AF1E7881600205B
:10B4B00038B500F11C02044604F16405104650ED55
:10B4C000017AB1EC010A77EE807A40ED017AFDF75E
:10B4D0009DF81830A842F2D12369294D61680133E3
:10B4E0002361D5F88C385B1AA1688B422CD91046A1
:10B4F000FFF780FFD4ED057AB4EEE70AF1EE10FA1B
:10B5000015DC04F13400FFF775FFD4ED057AB4EED5
:10B51000E70AF1EE10FA0ADC04F14C00FFF76AFFCB
:10B52000D4ED057AB4EEE70AF1EE10FA10DD237BD4
:10B530005BB9D5F88C28626000222361A261E362C6
:10B5400022636364A264E36538BD03232370FBE7D1
:10B55000D4ED047AD4ED066AF8EE677A022386EE1B
:10B56000A77AD4ED0C6A84ED067A86EEA77AD4ED3C
:10B57000126A84ED0C7A86EEA77A84ED127AE5E7FA
:10B580008816002060EEA00A08B5E0EE000A10EE72
:10B59000900A47F0B3F8BDE80840DDE660EEA00A87
:10B5A00008B5E0EE000AE1EE010A10EE900A47F05D
:10B5B000A5F8BDE80840CFE62DE9F74F90469DF885
:10B5C0003020002A14BF4FF030094FF020090D9AA7
:10B5D0001C1E05460F46BABF64420123002312F821
:10B5E000011B01B12CB9A24663B100240D9EA41B1E
:10B5F00012E0013CF3E7BD4204D2494628460193DC
:10B60000C047019BBAF1010AF5D2EFE7BD4203D270
:10B6100028460193C047019B06EB040B16F8011B5B
:10B620000029F3D133B15446002C07DCBAF1000FE6
:10B63000A8BFD344584603B0BDE8F08FBD4202D244
:10B6400049462846C047013CEEE70FB437B50C4DDC
:10B6500006ABD5F8301953F8042BD5F82C09019313
:10B6600046F01DFD0446D5F8580106F02EF90028D5
:10B67000F9D0204603B0BDE8304004B0704700BFA9
:10B68000802700200EB403B503AB084953F8042B00
:10B69000CDE9003001A846F002FD019B00221A709E
:10B6A00002B05DF804EB03B0704700BF5B86000892
:10B6B0000CB430B52C4CD4F83439A5B01BB9D4F83F
:10B6C0003839002B3AD094F83C39994206D90123F5
:10B6D00003FA00F0D4F8403918422FD0234BD3F8A6
:10B6E0008C184FF47A7304A8B1FBF3F203FB121326
:10B6F0001F49FFF7C7FF04AB0344289A1D49039372
:10B70000054629AB03A8029346F0C9FC039B591CCC
:10B7100003910A211970039B0246591CD4F834097D
:10B7200003910021197090B103681B6A03B1984717
:10B73000D4F8345904AC14F8011B21B925B0BDE884
:10B74000304002B07047284606F04EF8F3E7D4F8D0
:10B750003839002BF2D002212A4400910A44FD20FE
:10B7600004A926F0A5FBE9E7802700208816002021
:10B77000C00006080386000810B54FF4004086B0EC
:10B7800023F0D4FD044690B34FF4004123F030FF82
:10B7900002281AD1226848F201039A4227D14FF4B5
:10B7A000004043F0ADFD10B31F4BD3F84429824253
:10B7B0001FD0D3F8202A904230D0D3F8FC2A9042F0
:10B7C0002FD00022C3F8382911E00023022294F977
:10B7D0000400CDE901234FF4612200924FF40041AF
:10B7E0001A4623F055FF104BC3F8340928B906B0A8
:10B7F00010BD03F64412C3F838290C4B04930C4BCC
:10B8000003930C4B02930C4B01930C4B00930C4A8B
:10B810000C4B02210020FFF74BFFE8E703F5226203
:10B82000E9E703F6FC22E6E780270020CC000608C3
:10B83000D5000608DE000608EA0006088D000608A6
:10B840009C0D060898000608184A38B5D2F8D84B5F
:10B85000033004EB9003B3F5007F19D802F6DC3512
:10B86000C2F8D83B124A02EB810120F00300D1F864
:10B87000E422C3F500731044C1F8E4020D4A9B00B2
:10B880000421002005EB8404FFF712FF204638BD99
:10B890000021094A0846FFF70BFF084AD2F8983002
:10B8A00043F00073C2F898300024EFE780270020AF
:10B8B00078380020F000060813010608D80001209F
:10B8C0002DE9F04706460068FDF70AFF0D280546FA
:10B8D00008DD1F4A00210520FFF7EAFE002420466C
:10B8E000BDE8F0871B4F07EB80094FEA8008D9F8C5
:10B8F0006CA1BAF1000F1CD107216420FFF7A4FF4F
:10B900000446C9F86C0128B90146134A0520FFF71F
:10B91000CFFEE4E7642251464BF021FA0F48D9F8F4
:10B920006C312DB200EBC505C3E90053DB615B63ED
:10B93000DB6447447179D7F86C41182000FB014360
:10B9400000221C46C3E903229E601A750434C6E730
:10B95000210106088027002046010608A06E050880
:10B960002DE9F043062592F9007087B06B43144629
:10B9700012F80580A0EB080EA0EB070CBEF1000F3B
:10B98000B8BFCEF1000EBCF1000FB8BFCCF1000C77
:10B99000E64502EB050905F10605BCBF4FFA88F73D
:10B9A0004C46AB421646E3D11A443378BB420CD125
:10B9B000658873884D1BCB1A002DB8BF6D42002BD4
:10B9C000B8BF5B429D42C8BF34460636B242ECD196
:10B9D0006379049323790393638802932378064A57
:10B9E000CDE90013034603210120FFF761FE204645
:10B9F00007B0BDE8F08300BF6001060803685A1C69
:10BA0000026019700368090A5A1C026019707047B5
:10BA100003685A1C0260197003685A1C02600A0A03
:10BA20001A7003685A1C02600A0C1A700368090E27
:10BA30005A1C02601970704703685A1C02600A0A97
:10BA40001A7003685A1C02601970704738B50446B2
:10BA5000006815464AF04AFF23682B44236038BD2E
:10BA600003685A1C02601878704703685A1C026009
:10BA70001A4612F8021B0260587841EA002070470B
:10BA800010B502681146531C036011F8024B0160A7
:10BA9000D31C5178036093781B0443EA0123111DE2
:10BAA0000160D078234343EA006010BDD1E9003241
:10BAB0009A4206D05A1C0A6008B11B780370012014
:10BAC000704700207047D1E900239B1A012B10B565
:10BAD0000446084604DDFFF7C8FF2080012010BDA2
:10BAE0000020FCE730B50A440446914201D1002011
:10BAF00011E014F8013BA3F14100192811F8010BE2
:10BB0000A0F1410598BF2033192D98BF20301B1A92
:10BB100002D10028E9D130BD1846FCE76FF00042A1
:10BB2000E0E710B50288C378A2F5FA62910840F206
:10BB3000B554013B04FB013381780C24013902F038
:10BB4000030204FB02120D49847901EB4202182121
:10BB5000B2F88E201344027901FB03224379008955
:10BB60003C2101FB0233064A224401FB03224FF42D
:10BB70007A730021C2FB030110BD00BF986E050857
:10BB800080436D382DE9F04190461F4605464FF43D
:10BB90007A7200234046394647F036FA284B3C215A
:10BBA000034493FBF1F201FB1233AB7192FBF1F30F
:10BBB00001FB13226A7140F2B551182293FBF2F493
:10BBC00002FB143394FBF1F201FB1244B4F5896FCC
:10BBD0002B714FEA82032EDA40F2DA2294422CDCF7
:10BBE000B4F5B77FB4BF00210121164A182000FB2D
:10BBF00001220B2632F81600A04201DD013EF9D1E8
:10BC000003F5FA630B442B80731CAB700C2303FB0E
:10BC100001660D4B03EB46060134B6F88E30E41A8C
:10BC2000EC704FF47A7200234046394647F0ECF945
:10BC30002A81BDE8F0810321D7E70221D5E700BFC3
:10BC400080BC92C7266F0508986E0508F0B5274D91
:10BC500006460F460FCD8DB06C460FC40FCD0FC4F6
:10BC600095E80F0084E80F0016F003033AD1642131
:10BC700096FBF1F201FB126242B94FF4C87296FBD7
:10BC8000F2F302FB1363003B18BF0123721EC3F1E2
:10BC90001D03002A019340F26D13104606FB03F3C7
:10BCA000B8BFB01C03EBA0006FF0630392FBF3F38B
:10BCB00018444FF4C87392FBF3F2104406306946FF
:10BCC00000240725013F51F8042BA74202EB000393
:10BCD00093FBF5F0C0EBC000A3EB000004D1101AF9
:10BCE0000DB0F0BD0123D1E70134ECE7886F050802
:10BCF000084BD3E9DA1251EA020309D0064BD3F814
:10BD00008C385B1842F10002C0E900320120704714
:10BD100000207047783800208816002037B5054687
:10BD20006846FFF7E5FF044638B1DDE90023284601
:10BD3000FFF728FF204603B030BD40F201132880F2
:10BD40006B80A880A8712881F4E7F0B50124B0FBCE
:10BD5000F4F58D4203D200261CB91C70F0BD4C4393
:10BD6000F5E7B0FBF4F5B4FBF1F704FB15002EB9D1
:10BD7000002D03DC8C420CD33C46EDE7092D08DD99
:10BD8000002A14BF372457242C4403F8014B0136F2
:10BD9000F2E73024F8E7A0F13003DAB2092A01D83B
:10BDA00018467047A0F16103052B01D8573870473A
:10BDB000A0F14103052B94BF37384FF0FF30704797
:10BDC00070B50446944208461546B4FBF2F602D319
:10BDD0003046FFF7F5FF05FB1644024B1B5D00F8EC
:10BDE000013B70BD99010608B5EEC00ADFED2D7A62
:10BDF000F1EE10FACCBF30EE270A30EE670ADFED25
:10BE00002A7A20EE270A30B5FDEEC07A87B017EE09
:10BE1000904A054684EAE470002303A9A0EBE4708D
:10BE2000CDE90033029343F0AFFF002CACBF2023D9
:10BE30002D2303A88DF8003046F0F4FA012822D112
:10BE400030238DF801308DF802308DF8033003A9CE
:10BE500068464AF08CFF684646F0E4FA0338C4B2FC
:10BE60002246694628464AF041FD00232B550F49DA
:10BE700028464AF07CFF0DEB040128464AF077FF84
:10BE8000284607B030BD022805D130238DF8013097
:10BE90008DF80230DBE7032804BF30238DF8013032
:10BEA000D5E700BF6F12033A00007A44EA3406086F
:10BEB00030B50278202A034600F10100F9D0092AA2
:10BEC000F7D02D2A4BD10346BFEE000A9FED3C7AF6
:10BED0001A46F2EE046A134612F8010BA0F1300183
:10BEE000CCB2092C41D92E280BD1F2EE046A1146AE
:10BEF000B0EE666A0B4611F8012B303AD0B2092831
:10BF00003CD91A7802F0DF02452A53D15A782D2AFB
:10BF10003FD102330120013B00220A2513F8011F03
:10BF20003039CCB2092C3AD9B2F59A7F1346DFEDFD
:10BF3000256A28BF4FF49A731A46F7EE007A072A4B
:10BF400030D8DA086FF0070101FB0233F2EE046A21
:10BF500063BB88B3C7EE276A20EE260A30BD2B2AC2
:10BF600008BF0346B7EE000AB0E707EE901AF8EEF6
:10BF7000E77AE7EE267AB0EE677AACE707EE902A2A
:10BF8000F8EEE77AC7EEA65A66EE866A37EE257AAD
:10BF9000B0E72B2A14BF013302330020BBE705FBB7
:10BFA0000212BBE767EEA67A083AC8E767EEA67A00
:10BFB000013BCDE7F7EE007A67EE276ACCE700BFDA
:10BFC0000000000020BCBE4C70B5034610F8012BE9
:10BFD000202AFAD0092AF8D02D2A0ABF03460125C3
:10BFE0004FF0FF35591E00240A2611F8010FFFF704
:10BFF000D2FE092802D905FB04F070BD06FB04043B
:10C00000F3E710B50023802804D893420AD2C8541D
:10C01000581C10BD934205D060F07F04CC54C00979
:10C020000133F0E74FF0FF30F3E770B51249134CDE
:10C03000134E01220020FEF761FD228862B1A31D8C
:10C04000B34217D2A518B54214D2052A12D92146F7
:10C05000FEF754FD2C46F0E721460222FEF74EFD86
:10C0600063880849084AC31A641A5842A2F8704300
:10C07000584170BD0020FCE7004000080140000866
:10C0800000800008FC3F0008783800202DE9F04FC0
:10C09000794BDFF8F4818FB0A3EB0802CDE90123DF
:10C0A0004FF00309102200210AA84AF058FE019B14
:10C0B0000993029B0893714BCDF81C801A69002AE2
:10C0C000BFBF6F4A5A6002F188325A600124F322DE
:10C0D000DA604FF0000A7E23224604A907A88DF8F3
:10C0E0003440CDF830A08DF81030FCF737FD5045C6
:10C0F00013DA0023B9F1010900F0B780002BD1D089
:10C1000098F800307E2B40F0B380FFF78EFF0028B8
:10C1100000F0AE800FB0BDE8F08F224604A9504673
:10C12000FEF7ECFC574CDFF864B1ADF812005C454B
:10C130003CD30024022205A907A8ADF81440FCF75F
:10C140000DFDA042D5DBBDF81200022205A9FEF7C5
:10C15000D5FC0222ADF812000DF1120107A8FCF780
:10C16000FDFCA042C5DB0B9888B1079B089A0344ED
:10C170009342BED80AABC0F10402214618444AF0EB
:10C18000EEFD0AA907A8FCF745FCCDE90B400C9B86
:10C19000002BAEDB9DF8342022B138490A6942F009
:10C1A00000420A61B3FA83F35B09A3E762888DF862
:10C1B00019A0C2F30B06B31DADF814302388C3F3E6
:10C1C0000B011B0B8DF818301304ADF8161020D49A
:10C1D000062205A907A8FCF7C1FC002889DBBDF8E9
:10C1E0001200062205A9FEF789FC6168ADF812006D
:10C1F000324607A8FCF7B2FC0028FFF67AAFBDF87C
:10C20000120061683246FEF779FCADF81200143472
:10C210008DE700273D460135EDB2062205A907A8A6
:10C220008DF81950FCF79AFC0028FFF662AFBDF8B4
:10C230001200062205A9FEF761FC6168ADF8120044
:10C240003944324607A80391FCF788FC0028FFF622
:10C2500050AFBDF8120003993246FEF74FFC032D94
:10C26000ADF812003744D6D1D1E7002B7FF448AFA8
:10C27000052005F05DFC00BF00800008003C024086
:10C2800023016745845B0608004000085C600608DF
:10C29000034AD2F8743323EA0000C2F874037047EB
:10C2A00078380020034606490648884201D300201A
:10C2B00070470288C2F30B029342F9D01430F4E7BE
:10C2C0005C600608845B060813B542880B4604468A
:10C2D000C2F30B020021184601924AF040FD216989
:10C2E00003460A48814209D30948019A814205D28E
:10C2F000184602B0BDE810404AF0F8BA21B118461D
:10C3000002B0BDE81040084702B010BD5C600608EE
:10C31000FD64060810B4B0F902404288002C0B46B8
:10C3200041685DF8044BBEBFC2F30B02DBB203FBF6
:10C330000211C9E730B5094B094CA34200D330BD07
:10C34000B3F902205988002A06DA5A68DD68C1F379
:10C350000B0100FB01222A601433EEE7845B060820
:10C360005C60060830B502460144002012F8015B0B
:10C37000082480EA050313F0010F4FEA50001CBFA8
:10C3800080F08C03D8B2631E13F0FF044FEA55050A
:10C39000EFD18A42EAD130BD154B03EB800070B576
:10C3A000D0F8300808B3134D0C2202FB005292F96A
:10C3B0007933591C1AD092F88103B0B1E91864247A
:10C3C00091F8B46392F880130020142263435C1840
:10C3D00005EB4404013AB4F8B843314410FA84F050
:10C3E000F5D11423B0FBF3F080B270BD0020FCE760
:10C3F000881600207838002010B5427A044632B101
:10C400000146406851F80A3B98470023637210BD0B
:10C4100010B4447A621C0444D2B24272A172037A0C
:10C42000934202D85DF8044BE6E75DF8044B704791
:10C4300010B503681A79022A044602D1987A45F0A9
:10C4400019FA00232360237110BDF0B50C4B0D4E7B
:10C450000446B34201D30020F0BD587988420DD183
:10C460001D79A54200D04CB9D879904206D1186800
:10C470000779AF4202D105689D42EDD00C33E8E761
:10C48000A00100082003000873B50279022A39D1FF
:10C49000032490F910308DF803401C4C8DF80220D5
:10C4A000142606FB03431A4E53F8A83C002501202E
:10C4B000B3428DF800508DF8010025D0154DAB42E8
:10C4C00003D0154883421DD1104602AA11441A8890
:10C4D00011F8085C22F040021204120C14211A8098
:10C4E00001FB00401A8850F89C1C22F0380231F8F9
:10C4F00025101204120C0A431A801A8892B242F0D4
:10C5000040021A8002B070BD2846DEE7F810002015
:10C510000030014000380040003C0040C36910B5C5
:10C52000044623B909211420FFF78EF9E061E06980
:10C5300010BD10B504460068FFF7F0FF83783BB1EB
:10C540004389E38183892382C3896382012010BDEB
:10C550001846FCE710B504460068FFF7DFFF837854
:10C560003BB18388E381C3882382038963820120EE
:10C5700010BD1846FCE710B504460068FFF7CEFF73
:10C58000837853B183885BBAE381C3885BBA238223
:10C5900003895BBA6382012010BD1846FCE710B521
:10C5A00000680C46FFF7BAFF83784BB1438922221B
:10C5B000DBBA93FBF2F303F26D132380012010BD6D
:10C5C0001846FCE70368DB6B13B504462BB92368F8
:10C5D0005B6B3BB9FF23E38202E098470028F6D16A
:10C5E00002B010BD214601A898470028F2D0BDF83E
:10C5F0000630013B9BB2EEE710B5036804469B682A
:10C60000984701236374FF23A37410BD036810B51A
:10C6100004461B689847236820469B689847E37C3C
:10C620000133E37410BD036810B504465B68984796
:10C63000236820469B689847E37C013BE37410BD68
:10C64000F0B585B0044618460D461646039345F0EE
:10C65000E9FE2268E67328440021A073009157691F
:10C66000039B324629462046B84705B0F0BD30B599
:10C67000046885B0E469089D34B10DB90DF10F056A
:10C680000095A04705B030BD2046FBE703685B6A14
:10C69000184703689B6A184710B5037B04460BB123
:10C6A000437B13B92046FFF7F4FF23682046DB687D
:10C6B000BDE81040184703685B6C03B1184770472A
:10C6C00038B504468B6801600D4698470B4B2361D3
:10C6D000002323752B6B13B1204698472075084B18
:10C6E00093F810361BB1237D23F00103237500233B
:10C6F000E3822046BDE8384064E700BF0001FF0048
:10C700007838002003681B6803B118477047036836
:10C710005B6803B11847704703681B6A03B1184789
:10C72000704703685B6A03B11847704730B4046808
:10C73000A46A14B1A44630BC604730BC704730B422
:10C740000468E46A14B1A44630BC604730BC70474A
:10C7500003685B6C03B11847704703689B6C03B1B7
:10C760001847704703689B6F03B118477047036809
:10C77000D3F8803003B1184770470368D3F884308A
:10C7800003B1184770470368D3F8883003B11847DE
:10C79000704721B10B68D3F88C3003B118470020E3
:10C7A000704738B5094B052404FB0030A0F1A00503
:10C7B00015F8010B013C44F054FF14F0FF04F7D1CD
:10C7C0002046BDE8384044F04CBF00BFB86F0508B4
:10C7D00010B5441E14F8010F00B910BDFFF7E1FFBA
:10C7E000F8E7FCF7D0BAFCF7CEBAFCF7CCBAFCF706
:10C7F000CABAFCF7C8BAFCF7C6BA30B10368828877
:10C800001B691A4214BF01200020704728B1036839
:10C81000828809B11A8370475A83704710B1036840
:10C8200082881A83704710B504464FF4FA7005F0F9
:10C83000EBF86069BDE81040F0E773B5104B1546A2
:10C8400090F910200446142000FB023353F8A86C22
:10C85000A3689A0704D46069019145F003F801992F
:10C86000304645F003FC2946304645F0FFFBA368FF
:10C870009B0702D42046FFF7D6FF012002B070BD0F
:10C88000F8100020F7B515461E4690F91020104B01
:10C890000446142000FB023353F8A87CA3689A07CF
:10C8A00004D46069019144F0DDFF0199384645F0F8
:10C8B000DDFB33462A460021384645F087FBA36856
:10C8C0009B0702D42046FFF7AEFF012003B0F0BD66
:10C8D000F8100020F7B515461E4690F91020104BB1
:10C8E0000446142000FB023353F8A87CA3689A077F
:10C8F00004D46069019144F0B5FF0199384645F0D0
:10C90000B5FB334600222946384645F05FFBA36855
:10C910009B0702D42046FFF786FF012003B0F0BD3D
:10C92000F810002073B5124B154690F910200446FC
:10C93000142000FB023353F8A86CA3689A0704D4B0
:10C940006069019144F08EFF0199304645F08EFBFD
:10C95000012300222946304645F038FBA3689B0797
:10C9600002D42046FFF75FFF012002B070BD00BF78
:10C97000F810002010B1036882885A83704710B500
:10C9800004464069FFF7F6FF012005F0BCF8606936
:10C99000FFF744FFBDE810400A2005F0B4B837B5F2
:10C9A0000C46054608B30368114A03F13F4303F5FB
:10C9B0007E0302EB932393F8C30343F0C3F9AB88E0
:10C9C000009304F003038DF80430C4F381038DF861
:10C9D00005302868C4F300136946C4F341148DF888
:10C9E00006308DF80740FBF7F0FB03B030BD00BF09
:10C9F000986E0508F7B50C4615460646A8B30368B9
:10CA00001B4A03F13F4303F57E0302EB93230F27F9
:10CA100093F8C30343F096F93068B6880096B6FAE7
:10CA200086F3C3F11F0303F00702C3F3CC0300EB4B
:10CA300083039200196A974021EA07011962196A73
:10CA400095400D431D6204F003038DF80430C4F3D8
:10CA500081038DF805306946C4F3001364098DF82D
:10CA600006308DF80740FBF7B0FB03B0F0BD00BF08
:10CA7000986E050838B50409013C032C00F00F023C
:10CA80001AD80E4D05EB4403B3F8CA1341FA02F36A
:10CA900013F001000FD0012303FA02F2013A02EA77
:10CAA00001002C4446F018FB94F8D2331844044B90
:10CAB0000C2202FB003038BD0020FCE7986E050810
:10CAC0008C3E00202DE9F043654F07EBC00985B08F
:10CAD00005464FEAC00819F8540CFFF7CBFF06468D
:10CAE00019F8530CFFF7C6FF044619F8520C43F02F
:10CAF00029F96B1CDBB21EB140F60B12F2803372C7
:10CB00001CB140F60B22E280237204223A21304607
:10CB1000FFF770FF204604223A21FFF76BFF07EB77
:10CB2000080353F8584C4F4B9C4263D103F5F23342
:10CB30001A6A42F400121A621A6A22F400121A6285
:10CB4000474417F8513C022B6ED0032B6ED0464E53
:10CB5000464A012B08BF1646A78827F03F076846BC
:10CB60003F04FDF7A7F93F0C029A414BB2FBF3F3E8
:10CB700098B20743A780218821F001010904090C1C
:10CB800021803C498E4253D13B4BB2FBF3F2013042
:10CB900092B2042A80B238BF04222084A283238860
:10CBA0009BB243F001032380238823F4816323F0A5
:10CBB00002031B041B0C43F4806323804FF4804367
:10CBC0002381238823F080031B041B0C23802388EC
:10CBD0009BB243F001032380284B03EB4513012252
:10CBE00083F86128002283F8605883F8622805B032
:10CBF000BDE8F083224B9C4209D103F5F0331A6A59
:10CC000042F480021A621A6A22F4800297E71D4BEE
:10CC10009C4295D103F5EE331A6A42F400021A627F
:10CC20001A6A22F400028AE7124E95E7124E93E741
:10CC300006EB4606B2FBF6F291B2C2F30B020AB95A
:10CC400041F0010141F400424FF496714B434FF41F
:10CC50007A71B3FBF1F301339BB223849EE700BFEB
:10CC6000F810002000540040801A060000350C0027
:10CC700040420F00A0860100400D030078380020DC
:10CC800000580040005C00402DE9F047B84E4401D8
:10CC900006EB401904F0F8FE99F96028B54B884678
:10CCA000D10003EBC202074652F8585C99F862289B
:10CCB000013A142A00F28380DFE812F0790089003B
:10CCC000A100BA00C700D100DC00F40001010A0194
:10CCD000170168018601B8010F02220234023F02E7
:10CCE0005F02820215005F184FF0090A17F8540C12
:10CCF000FFF7C0FE054617F8530CFFF7BBFEB6F86A
:10CD0000C03801339BB207462846A6F8C038FFF763
:10CD100085FD3846FFF782FD11212846FFF73FFECB
:10CD200011213846FFF73BFE4FF0650803E0052070
:10CD3000002104F0D7FE2846FFF75FFD10B9B8F1D7
:10CD40000108F4D12846FFF715FE0021052004F064
:10CD5000C9FE2846FFF762FD0021052004F0C2FE4F
:10CD6000BAF1010AE0D12846FFF704FE00210520B0
:10CD700004F0B8FE3846FFF7FDFD0021052004F061
:10CD8000B1FE2846FFF74AFD0021052004F0AAFE67
:10CD90003846FFF743FD331993F96008431C01D06F
:10CDA000FFF790FE3319002283F8622807E02B88F2
:10CDB00013F4007340F0D081321982F862383319CD
:10CDC00093F86238002B7FF465AFBDE8F0872B88BD
:10CDD00023F400631B041B0C2B802B889BB243F4B1
:10CDE00080632B802B889BB243F480732B80331994
:10CDF000032283F86228604B2344C3E902785F4929
:10CE00002846FBF724FA002800F0A681331993F88E
:10CE100072285AB993F87328FF2A04D193F870281E
:10CE20000AB10A22C0E733190422BDE70F22BBE78B
:10CE3000321992F8713803F0FE032B82052382F831
:10CE400062384D4B2344C3E902784D492846FBF72D
:10CE5000FEF9002800F0788133190622A4E733197F
:10CE600093F873282A82072283F86228424B2344CE
:10CE7000C3E9027843492846FBF7E9F9002800F0A6
:10CE800063813219D2F8743853B92B889BB243F4BA
:10CE900000732B80384B2344C3E9027801238CE7CD
:10CEA00008238AE72B889BB243F480732B803319C5
:10CEB000092283F86228304B2344C3E902782F49C2
:10CEC0002846FBF7C4F9002800F046813319A8E78B
:10CED000321992F8713843F001032B820B2382F848
:10CEE0006238254B2344C3E9027827492846FBF7DB
:10CEF000AEF9002800F028813219D2F87438012BDD
:10CF00001BD12B8823F480631B041B0C2B80EFF3B5
:10CF10001181102383F312882B8B2B889BB243F44F
:10CF200000732B80CBB283F311880C2382F8623814
:10CF3000114B2344C3E9027841E7022B15D12B881A
:10CF40009BB243F400632B80EFF31181102383F332
:10CF500012882B8B2B8823F480631B041B0C2B80E3
:10CF6000CBB283F311880D23E0E72B8B0E23DDE793
:10CF700078380020F8100020D8400020010003007D
:10CF8000820007008400070002000300944928463D
:10CF9000FBF768F9934B002800F0DF803119234438
:10CFA000D1F87828501CC1F87808288A1070D1F878
:10CFB0007428013AC1F874280122C3E9027881F883
:10CFC0007C2881F86228FAE687492846FBF74AF967
:10CFD000844B002800F0C180EFF3118C102282F303
:10CFE00012882A88301992B2D0F8781842F4007268
:10CFF0002A804A1CC0F878282A8A0A705FFA8CF2C4
:10D0000082F31188D0F87828511CC0F87818298A42
:10D0100011706FF00102C0F8742823440122C3E9A3
:10D02000027880F87C2880F86228C8E66E49284695
:10D03000FBF718F96B4B002800F08F803219D2F8FB
:10D04000741803292AD1298821F480610904090C64
:10D050002980EFF3118C102181F31288D2F878081F
:10D06000411CC2F87818298A0170298889B241F4D4
:10D07000007129805FFA8CF181F31188D2F8781859
:10D08000481CC2F87808288A0870D2F87418023947
:10D09000C2F874180C2182F862184AE702290FD8E6
:10D0A000298821F480610904090C2980298889B222
:10D0B00041F400712980298A002182F87C18EAE66F
:10D0C000D2F87818481CC2F87808288A0870D2F874
:10D0D00074180139C2F874182BE72B8823F4806385
:10D0E00032191B041B0C2B8092F8713803F0FE03DD
:10D0F0002B82102382F862383A4B2344C3E902782A
:10D100003A492846FBF7A3F8F0B1331993F873288E
:10D11000FF2A04D193F870280AB1132244E6331988
:10D12000112241E6331993F873282A82122283F8D8
:10D1300062282C4B2344C3E902782D492846FBF78B
:10D1400086F808B13319E8E72A492846FBF78AF838
:10D1500010B13319142227E6224B2344D3E90201EC
:10D1600042F21073381A68EB0108984278F1000314
:10D17000FFF425AE3319152216E63119194BD1F8F3
:10D1800074288AB1D1F87808234410F801CBA5F8A7
:10D1900010C0013AC3E90278C1F87808C1F87428D0
:10D1A000122381F862380AE62A8892B2234442F4B4
:10D1B00000722A80C3E90278012381F87C38F0E705
:10D1C0002B889BB243F400732B804FF6FF33AB8266
:10D1D000044B2344C3E9027801223319E4E500BF7C
:10D1E00040000010D840002004000010820007001A
:10D1F000840007000004001038B5114C04EB401403
:10D2000094F86158D5B1C4F87438049BC4F87838E0
:10D21000002384F87C380223490084F8732884F8BA
:10D22000623801229DF8143084F8711884F872284D
:10D2300084F87038FFF728FD94F87C58284638BDEC
:10D2400078380020F7B50779012F16460BD0022F4A
:10D2500016D18468E40758BF41F0800103B0BDE8EF
:10D26000F040FFF70FBB826802F00102CDE90062D7
:10D270000A46417C90F91000FFF7BEFF03B0F0BDF5
:10D280000020FBE77FB50379012B0D460BD0022B65
:10D290001AD18368DB0758BF01F07F0104B0BDE8F5
:10D2A0007040FFF7CABA81688DF80F2001F00101C4
:10D2B0000DF10F0200920191417C90F910002A4675
:10D2C000FFF79AFF04B070BD0020FBE70068F02272
:10D2D000FF21D7E7CA4341EA02120068D2B2D22145
:10D2E000D0E70068B422FF21CCE70A460068A521F8
:10D2F000C8E75521F9E700689622FF21C2E70A46F0
:10D3000000688721BEE7C90101F08002006878212A
:10D31000B8E773B50468B6227E2105462046FFF7BC
:10D32000B1FF642004F0EFFB02212046FFF7ACF8C8
:10D330002046FFF724FB00227C212046FFF7A2FFB6
:10D34000012004F0E0FB002259212046FFF79AFF5C
:10D35000012004F0D8FB5E2394F910208DF80730EB
:10D360003F4B142101FB023353F8A86CA3689A07C2
:10D3700002D4606944F076FA01230DF1070200211E
:10D38000304644F023FE4FF4A473364A0021304661
:10D3900044F01CFEA3689B0702D42046FFF743FA23
:10D3A0000A2004F0B0FB012259212046FFF76AFF52
:10D3B000012004F0A8FB8C2240212046FFF762FFE9
:10D3C000012004F0A0FB022241212046FFF75AFF72
:10D3D000012004F098FB244EE96A244A95F82900BC
:10D3E000B6FBF1F1092389B2FEF7BAFA4388B6FB1E
:10D3F000F3F66E630279422142F0C0022046FFF745
:10D4000041FF012004F07FFB082243212046FFF763
:10D4100039FF012004F077FB042258212046FFF752
:10D4200031FF012004F06FFB0A2253212046FFF751
:10D4300029FF012004F067FB00227C212046FFF732
:10D4400021FF012004F05FFB06227D212046FFF72B
:10D4500019FF012002B0BDE8704004F054BB00BFCA
:10D46000F81000206E72050840420F00B6730508E0
:10D47000F8B5C16A04682D4A2D4FB7FBF1F1054696
:10D48000102389B290F82900FEF76AFA0021438838
:10D49000B7FBF3F706466F632046FEF7F5FF8022E1
:10D4A0006B212046FFF7EEFE642004F02CFB0722E0
:10D4B00068212046FFF7E6FE642004F024FB0022EA
:10D4C0006B212046FFF7DEFE642004F01CFB0122E6
:10D4D0006B212046FFF7D6FE0F2004F014FB182224
:10D4E0001B212046FFF7CEFE0F2004F00CFB182274
:10D4F0001C212046FFF7C6FE0F2004F004FB327902
:10D500001A212046FFF7BEFE0F2004F0FCFA7279C4
:10D5100019212046FFF7B6FE642004F0F4FA2046F5
:10D520000321BDE8F840FEF7AFBF00BFEC7305086C
:10D5300040420F0008B53122F4210068FFF7A2FE37
:10D54000012008BD0068012258219BE600680122E5
:10D55000482197E600680222082193E6006801222C
:10D5600008218FE610B57822044600210068FFF7F5
:10D5700089FE052004F0C7FA202201212068FFF768
:10D5800081FE052004F0BFFA002202212068FFF787
:10D5900079FE642004F0B7FA012010BD10B52422F2
:10D5A000044641210068FFF76DFE80B1206820220B
:10D5B0003021FFF767FE50B1206806223121FFF7C6
:10D5C00061FE20B1206800223421FFF75BFE0520B8
:10D5D00004F099FA012010BD10B5072204460A2173
:10D5E0000068FFF74FFE052004F08DFA2422412148
:10D5F0002068FFF747FE052004F085FAC02242218B
:10D600002068FFF73FFE052004F07DFA012010BDE1
:10D6100010B50446002221210068FFF733FE206880
:10D62000FC222021FFF72EFE206840222421FFF754
:10D6300029FE20680C222321FFF724FE2068002207
:10D640002221FFF71FFE012010BD10B50122044664
:10D6500010210068FFF716FE40B1142004F053FAC1
:10D660002068A022BDE8104011210BE610BD10B5C6
:10D67000012204460B210068FFF704FE20B1206858
:10D680001D220921FFF7FEFD00F0010010BD044B33
:10D690000246D3F8C40808B18021F3E5704700BF03
:10D6A0007838002010B5B020FFF7F1FF4020FFF7D9
:10D6B000EEFF0020FFF7EBFF1020FFF7E8FF4FF42D
:10D6C0008064013C0020A4B243F0CBFF002CF8D1D1
:10D6D00010BD503910B50446C8B2FFF7D8FF04EBAF
:10D6E0004400400004EB440400F00E00FFF7CFFFBD
:10D6F000C4F3C3001030BDE81040C8E708B5503887
:10D70000C0B2FFF7C4FF0020FFF7C1FFBDE808402B
:10D710001020BCE738B5114C04EB401494F8615864
:10D72000CDB1C4F87438049BC4F87838022349009A
:10D7300084F8732884F8623800229DF8143084F845
:10D74000711884F8722884F87C2884F87038FFF700
:10D750009BFA94F87C58284638BD00BF78380020E2
:10D76000F7B50779012F16460BD0022F16D1846822
:10D77000E40758BF41F0800103B0BDE8F040FFF777
:10D78000A9B8826802F00102CDE900620A46417C34
:10D7900090F91000FFF7BEFF03B0F0BD0020FBE7DB
:10D7A00038B504460068FEF7B9FE0C230546021D95
